{"abi":[{"type":"constructor","inputs":[{"name":"_usdc","type":"address","internalType":"address"},{"name":"_marketplace","type":"address","internalType":"address"}],"stateMutability":"nonpayable"},{"type":"function","name":"EMERGENCY_TIMEOUT","inputs":[],"outputs":[{"name":"","type":"uint256","internalType":"uint256"}],"stateMutability":"view"},{"type":"function","name":"RELEASE_TIMEOUT","inputs":[],"outputs":[{"name":"","type":"uint256","internalType":"uint256"}],"stateMutability":"view"},{"type":"function","name":"acceptOwnership","inputs":[],"outputs":[],"stateMutability":"nonpayable"},{"type":"function","name":"computeEscrowId","inputs":[{"name":"slug","type":"string","internalType":"string"},{"name":"payer","type":"address","internalType":"address"},{"name":"amount","type":"uint256","internalType":"uint256"},{"name":"nonce","type":"bytes32","internalType":"bytes32"}],"outputs":[{"name":"","type":"bytes32","internalType":"bytes32"}],"stateMutability":"view"},{"type":"function","name":"createEscrow","inputs":[{"name":"escrowId","type":"bytes32","internalType":"bytes32"},{"name":"slug","type":"string","internalType":"string"},{"name":"payer","type":"address","internalType":"address"},{"name":"amount","type":"uint256","internalType":"uint256"},{"name":"validAfter","type":"uint256","internalType":"uint256"},{"name":"validBefore","type":"uint256","internalType":"uint256"},{"name":"nonce","type":"bytes32","internalType":"bytes32"},{"name":"v","type":"uint8","internalType":"uint8"},{"name":"r","type":"bytes32","internalType":"bytes32"},{"name":"s","type":"bytes32","internalType":"bytes32"}],"outputs":[],"stateMutability":"nonpayable"},{"type":"function","name":"disputeEscrow","inputs":[{"name":"escrowId","type":"bytes32","internalType":"bytes32"}],"outputs":[],"stateMutability":"nonpayable"},{"type":"function","name":"emergencyRefund","inputs":[{"name":"escrowId","type":"bytes32","internalType":"bytes32"}],"outputs":[],"stateMutability":"nonpayable"},{"type":"function","name":"escrows","inputs":[{"name":"","type":"bytes32","internalType":"bytes32"}],"outputs":[{"name":"payer","type":"address","internalType":"address"},{"name":"slug","type":"string","internalType":"string"},{"name":"amount","type":"uint256","internalType":"uint256"},{"name":"createdAt","type":"uint256","internalType":"uint256"},{"name":"status","type":"uint8","internalType":"enum WasiEscrow.EscrowStatus"}],"stateMutability":"view"},{"type":"function","name":"getEscrow","inputs":[{"name":"escrowId","type":"bytes32","internalType":"bytes32"}],"outputs":[{"name":"","type":"tuple","internalType":"struct WasiEscrow.EscrowTx","components":[{"name":"payer","type":"address","internalType":"address"},{"name":"slug","type":"string","internalType":"string"},{"name":"amount","type":"uint256","internalType":"uint256"},{"name":"createdAt","type":"uint256","internalType":"uint256"},{"name":"status","type":"uint8","internalType":"enum WasiEscrow.EscrowStatus"}]}],"stateMutability":"view"},{"type":"function","name":"marketplace","inputs":[],"outputs":[{"name":"","type":"address","internalType":"address"}],"stateMutability":"view"},{"type":"function","name":"operators","inputs":[{"name":"","type":"address","internalType":"address"}],"outputs":[{"name":"","type":"bool","internalType":"bool"}],"stateMutability":"view"},{"type":"function","name":"owner","inputs":[],"outputs":[{"name":"","type":"address","internalType":"address"}],"stateMutability":"view"},{"type":"function","name":"pendingOwner","inputs":[],"outputs":[{"name":"","type":"address","internalType":"address"}],"stateMutability":"view"},{"type":"function","name":"refundEscrow","inputs":[{"name":"escrowId","type":"bytes32","internalType":"bytes32"}],"outputs":[],"stateMutability":"nonpayable"},{"type":"function","name":"refundExpired","inputs":[{"name":"escrowId","type":"bytes32","internalType":"bytes32"}],"outputs":[],"stateMutability":"nonpayable"},{"type":"function","name":"releaseEscrow","inputs":[{"name":"escrowId","type":"bytes32","internalType":"bytes32"}],"outputs":[],"stateMutability":"nonpayable"},{"type":"function","name":"releaseExpired","inputs":[{"name":"escrowId","type":"bytes32","internalType":"bytes32"}],"outputs":[],"stateMutability":"nonpayable"},{"type":"function","name":"renounceOwnership","inputs":[],"outputs":[],"stateMutability":"nonpayable"},{"type":"function","name":"resolveDispute","inputs":[{"name":"escrowId","type":"bytes32","internalType":"bytes32"},{"name":"releaseToMarketplace","type":"bool","internalType":"bool"}],"outputs":[],"stateMutability":"nonpayable"},{"type":"function","name":"setOperator","inputs":[{"name":"operator","type":"address","internalType":"address"},{"name":"active","type":"bool","internalType":"bool"}],"outputs":[],"stateMutability":"nonpayable"},{"type":"function","name":"transferOwnership","inputs":[{"name":"newOwner","type":"address","internalType":"address"}],"outputs":[],"stateMutability":"nonpayable"},{"type":"function","name":"usdc","inputs":[],"outputs":[{"name":"","type":"address","internalType":"contract IERC20"}],"stateMutability":"view"},{"type":"event","name":"DisputeResolved","inputs":[{"name":"escrowId","type":"bytes32","indexed":true,"internalType":"bytes32"},{"name":"resolution","type":"string","indexed":false,"internalType":"string"}],"anonymous":false},{"type":"event","name":"EscrowCreated","inputs":[{"name":"escrowId","type":"bytes32","indexed":true,"internalType":"bytes32"},{"name":"slug","type":"string","indexed":false,"internalType":"string"},{"name":"payer","type":"address","indexed":true,"internalType":"address"},{"name":"amount","type":"uint256","indexed":false,"internalType":"uint256"}],"anonymous":false},{"type":"event","name":"EscrowDisputed","inputs":[{"name":"escrowId","type":"bytes32","indexed":true,"internalType":"bytes32"}],"anonymous":false},{"type":"event","name":"EscrowRefunded","inputs":[{"name":"escrowId","type":"bytes32","indexed":true,"internalType":"bytes32"},{"name":"payer","type":"address","indexed":true,"internalType":"address"},{"name":"amount","type":"uint256","indexed":false,"internalType":"uint256"}],"anonymous":false},{"type":"event","name":"EscrowReleased","inputs":[{"name":"escrowId","type":"bytes32","indexed":true,"internalType":"bytes32"},{"name":"to","type":"address","indexed":true,"internalType":"address"},{"name":"amount","type":"uint256","indexed":false,"internalType":"uint256"}],"anonymous":false},{"type":"event","name":"OperatorSet","inputs":[{"name":"operator","type":"address","indexed":true,"internalType":"address"},{"name":"active","type":"bool","indexed":false,"internalType":"bool"}],"anonymous":false},{"type":"event","name":"OwnershipTransferStarted","inputs":[{"name":"previousOwner","type":"address","indexed":true,"internalType":"address"},{"name":"newOwner","type":"address","indexed":true,"internalType":"address"}],"anonymous":false},{"type":"event","name":"OwnershipTransferred","inputs":[{"name":"previousOwner","type":"address","indexed":true,"internalType":"address"},{"name":"newOwner","type":"address","indexed":true,"internalType":"address"}],"anonymous":false},{"type":"error","name":"OwnableInvalidOwner","inputs":[{"name":"owner","type":"address","internalType":"address"}]},{"type":"error","name":"OwnableUnauthorizedAccount","inputs":[{"name":"account","type":"address","internalType":"address"}]},{"type":"error","name":"ReentrancyGuardReentrantCall","inputs":[]},{"type":"error","name":"SafeERC20FailedOperation","inputs":[{"name":"token","type":"address","internalType":"address"}]}],"bytecode":{"object":"0x60c060405234801562000010575f80fd5b5060405162001f4338038062001f438339810160408190526200003391620001d5565b33806200005a57604051631e4fbdf760e01b81525f60048201526024015b60405180910390fd5b62000065816200014c565b5060016002556001600160a01b038216620000c35760405162461bcd60e51b815260206004820152601560248201527f57617369457363726f773a207a65726f20757364630000000000000000000000604482015260640162000051565b6001600160a01b0381166200011b5760405162461bcd60e51b815260206004820152601c60248201527f57617369457363726f773a207a65726f206d61726b6574706c61636500000000604482015260640162000051565b6001600160a01b039182166080521660a052335f908152600460205260409020805460ff191660011790556200020b565b600180546001600160a01b031916905562000167816200016a565b50565b5f80546001600160a01b038381166001600160a01b0319831681178455604051919092169283917f8be0079c531659141344cd1fd0a4f28419497f9722a3daafe3b4186f6b6457e09190a35050565b80516001600160a01b0381168114620001d0575f80fd5b919050565b5f8060408385031215620001e7575f80fd5b620001f283620001b9565b91506200020260208401620001b9565b90509250929050565b60805160a051611ce56200025e5f395f818161026601528181610475015281816114b701526114de01525f81816101b601528181610704015281816108dc01528181611120015261148c0152611ce55ff3fe608060405234801561000f575f80fd5b506004361061013d575f3560e01c8063abc8c7af116100b4578063d92e0af211610079578063d92e0af2146102d4578063e30c3978146102e7578063e673fdd5146102f8578063f023b8111461030b578063f08a07671461032b578063f2fde38b14610335575f80fd5b8063abc8c7af14610261578063ad6d886914610288578063bf89fc611461029b578063cc3e049b146102ae578063cfd24522146102c1575f80fd5b806347aed5081161010557806347aed50814610203578063558a729714610216578063715018a61461022957806379ba5097146102315780637f264076146102395780638da5cb5b14610251575f80fd5b806313e7c9d8146101415780632742c5e2146101785780632d83549c1461018d5780633e413bee146101b157806343a0e3e6146101f0575b5f80fd5b61016361014f366004611704565b60046020525f908152604090205460ff1681565b60405190151581526020015b60405180910390f35b61018b610186366004611724565b610348565b005b6101a061019b366004611724565b6104fb565b60405161016f9594939291906117b2565b6101d87f000000000000000000000000000000000000000000000000000000000000000081565b6040516001600160a01b03909116815260200161016f565b61018b6101fe366004611809565b6105be565b61018b610211366004611724565b6107e3565b61018b610224366004611833565b61095b565b61018b610a17565b61018b610a2a565b61024362278d0081565b60405190815260200161016f565b5f546001600160a01b03166101d8565b6101d87f000000000000000000000000000000000000000000000000000000000000000081565b6102436102963660046118a0565b610a6b565b61018b6102a9366004611724565b610aa8565b61018b6102bc366004611724565b610b68565b61018b6102cf366004611724565b610cfe565b61018b6102e2366004611724565b610e00565b6001546001600160a01b03166101d8565b61018b610306366004611901565b610eed565b61031e610319366004611724565b6112be565b60405161016f91906119ad565b6102436203f48081565b61018b610343366004611704565b6113cd565b61035061143d565b5f818152600360208190526040909120015481906103895760405162461bcd60e51b815260040161038090611a0a565b60405180910390fd5b815f808281526003602081905260409091206004015460ff16908111156103b2576103b261177e565b146103cf5760405162461bcd60e51b815260040161038090611a39565b5f83815260036020819052604090912001546103ef906203f48090611a70565b42101561043e5760405162461bcd60e51b815260206004820152601f60248201527f57617369457363726f773a2074696d656f7574206e6f742072656163686564006044820152606401610380565b335f9081526004602052604090205460ff168061046457505f546001600160a01b031633145b806104975750336001600160a01b037f000000000000000000000000000000000000000000000000000000000000000016145b6104e35760405162461bcd60e51b815260206004820152601a60248201527f57617369457363726f773a206e6f7420617574686f72697a65640000000000006044820152606401610380565b6104ec83611465565b50506104f86001600255565b50565b60036020525f9081526040902080546001820180546001600160a01b03909216929161052690611a95565b80601f016020809104026020016040519081016040528092919081815260200182805461055290611a95565b801561059d5780601f106105745761010080835404028352916020019161059d565b820191905f5260205f20905b81548152906001019060200180831161058057829003601f168201915b50505050600283015460038401546004909401549293909290915060ff1685565b6105c6611548565b6105ce61143d565b5f828152600360208190526040909120015482906105fe5760405162461bcd60e51b815260040161038090611a0a565b5f8381526003602081905260409091206004015460ff16818111156106255761062561177e565b146106725760405162461bcd60e51b815260206004820152601860248201527f57617369457363726f773a206e6f7420646973707574656400000000000000006044820152606401610380565b81156106d95761068183611465565b827f0ff5c6ecc4a1e5a2009c60c86c5286a3692b6132402a64fd34d9268df7ebb6376040516106cc906020808252600890820152671c995b19585cd95960c21b604082015260600190565b60405180910390a26107d4565b5f83815260036020526040902060048101805460ff19166002908117909155815490820154610737917f00000000000000000000000000000000000000000000000000000000000000006001600160a01b0390811692911690611574565b805460028201546040519081526001600160a01b039091169085907ffc31a7ddbe933aa6e67f3c98c183fbc87addd2b602fcfb10238d2f85cf0266179060200160405180910390a3837f0ff5c6ecc4a1e5a2009c60c86c5286a3692b6132402a64fd34d9268df7ebb6376040516107ca906020808252600890820152671c99599d5b99195960c21b604082015260600190565b60405180910390a2505b506107df6001600255565b5050565b335f9081526004602052604090205460ff168061080957505f546001600160a01b031633145b6108255760405162461bcd60e51b815260040161038090611acd565b61082d61143d565b5f8181526003602081905260409091200154819061085d5760405162461bcd60e51b815260040161038090611a0a565b815f808281526003602081905260409091206004015460ff16908111156108865761088661177e565b146108a35760405162461bcd60e51b815260040161038090611a39565b5f8381526003602052604090206004810180546002919060ff19166001835b021790555080546002820154610906916001600160a01b037f0000000000000000000000000000000000000000000000000000000000000000811692911690611574565b805460028201546040519081526001600160a01b039091169085907ffc31a7ddbe933aa6e67f3c98c183fbc87addd2b602fcfb10238d2f85cf0266179060200160405180910390a35050506104f86001600255565b610963611548565b6001600160a01b0382166109b95760405162461bcd60e51b815260206004820152601860248201527f57617369457363726f773a207a65726f206164647265737300000000000000006044820152606401610380565b6001600160a01b0382165f81815260046020908152604091829020805460ff191685151590811790915591519182527f1a594081ae893ab78e67d9b9e843547318164322d32c65369d78a96172d9dc8f910160405180910390a25050565b610a1f611548565b610a285f6115cb565b565b60015433906001600160a01b03168114610a625760405163118cdaa760e01b81526001600160a01b0382166004820152602401610380565b6104f8816115cb565b5f858585858546604051602001610a8796959493929190611b2c565b60405160208183030381529060405280519060200120905095945050505050565b335f9081526004602052604090205460ff1680610ace57505f546001600160a01b031633145b610aea5760405162461bcd60e51b815260040161038090611acd565b610af261143d565b5f81815260036020819052604090912001548190610b225760405162461bcd60e51b815260040161038090611a0a565b815f808281526003602081905260409091206004015460ff1690811115610b4b57610b4b61177e565b146104e35760405162461bcd60e51b815260040161038090611a39565b610b7061143d565b5f81815260036020819052604090912001548190610ba05760405162461bcd60e51b815260040161038090611a0a565b815f808281526003602081905260409091206004015460ff1690811115610bc957610bc961177e565b14610be65760405162461bcd60e51b815260040161038090611a39565b5f8381526003602081905260409091200154610c06906203f48090611a70565b421015610c555760405162461bcd60e51b815260206004820152601f60248201527f57617369457363726f773a2074696d656f7574206e6f742072656163686564006044820152606401610380565b5f83815260036020526040902080546001600160a01b0316331480610c885750335f9081526004602052604090205460ff165b80610c9c57505f546001600160a01b031633145b610ce85760405162461bcd60e51b815260206004820152601a60248201527f57617369457363726f773a206e6f7420617574686f72697a65640000000000006044820152606401610380565b6004810180546002919060ff19166001836108c2565b335f9081526004602052604090205460ff1680610d2457505f546001600160a01b031633145b610d405760405162461bcd60e51b815260040161038090611acd565b5f81815260036020819052604090912001548190610d705760405162461bcd60e51b815260040161038090611a0a565b815f808281526003602081905260409091206004015460ff1690811115610d9957610d9961177e565b14610db65760405162461bcd60e51b815260040161038090611a39565b5f838152600360208190526040808320600401805460ff19169092179091555184917f550ba3f95fa658596451573e6d789afa3858d8a992cb121712d3df88cff5765c91a2505050565b610e0861143d565b5f81815260036020819052604090912001548190610e385760405162461bcd60e51b815260040161038090611a0a565b815f808281526003602081905260409091206004015460ff1690811115610e6157610e6161177e565b14610e7e5760405162461bcd60e51b815260040161038090611a39565b5f8381526003602081905260409091200154610e9e9062278d0090611a70565b4210156108a35760405162461bcd60e51b815260206004820181905260248201527f57617369457363726f773a20656d657267656e6379206e6f74206163746976656044820152606401610380565b335f9081526004602052604090205460ff1680610f1357505f546001600160a01b031633145b610f2f5760405162461bcd60e51b815260040161038090611acd565b610f3761143d565b8a610f845760405162461bcd60e51b815260206004820152601960248201527f57617369457363726f773a207a65726f20657363726f774964000000000000006044820152606401610380565b88610fca5760405162461bcd60e51b815260206004820152601660248201527557617369457363726f773a20656d70747920736c756760501b6044820152606401610380565b6001600160a01b0388166110195760405162461bcd60e51b81526020600482015260166024820152752bb0b9b4a2b9b1b937bb9d103d32b937903830bcb2b960511b6044820152606401610380565b5f87116110685760405162461bcd60e51b815260206004820152601760248201527f57617369457363726f773a207a65726f20616d6f756e740000000000000000006044820152606401610380565b5f8b81526003602081905260409091200154156110c75760405162461bcd60e51b815260206004820152601b60248201527f57617369457363726f773a20657363726f7749642065786973747300000000006044820152606401610380565b6040516371f70b0760e11b81526001600160a01b03898116600483015230602483015260448201899052606482018890526084820187905260a4820186905260ff851660c483015260e4820184905261010482018390527f0000000000000000000000000000000000000000000000000000000000000000169063e3ee160e90610124015f604051808303815f87803b158015611162575f80fd5b505af1158015611174573d5f803e3d5ffd5b505050506040518060a00160405280896001600160a01b031681526020018b8b8080601f0160208091040260200160405190810160405280939291908181526020018383808284375f920182905250938552505050602082018a90524260408301526060909101525f8c8152600360209081526040909120825181546001600160a01b0319166001600160a01b0390911617815590820151600182019061121b9082611bcc565b5060408201518160020155606082015181600301556080820151816004015f6101000a81548160ff021916908360038111156112595761125961177e565b0217905550905050876001600160a01b03168b7f5fb66f9845fd5881c9bda557ffe2961b33749cd245cca9ce6b2b5824c471ffb88c8c8b60405161129f93929190611c8c565b60405180910390a36112b16001600255565b5050505050505050505050565b6112c66116a5565b5f82815260036020908152604091829020825160a0810190935280546001600160a01b03168352600181018054919284019161130190611a95565b80601f016020809104026020016040519081016040528092919081815260200182805461132d90611a95565b80156113785780601f1061134f57610100808354040283529160200191611378565b820191905f5260205f20905b81548152906001019060200180831161135b57829003601f168201915b5050509183525050600282015460208201526003808301546040830152600483015460609092019160ff16908111156113b3576113b361177e565b60038111156113c4576113c461177e565b90525092915050565b6113d5611548565b600180546001600160a01b0383166001600160a01b031990911681179091556114055f546001600160a01b031690565b6001600160a01b03167f38d16b8cac22d99fc7c124b9cd0de2d3fa1faef420bfe791d8c362d765e2270060405160405180910390a350565b600280540361145f57604051633ee5aeb560e01b815260040160405180910390fd5b60028055565b5f81815260036020526040902060048101805460ff1916600117905560028101546114dc907f00000000000000000000000000000000000000000000000000000000000000006001600160a01b0316907f000000000000000000000000000000000000000000000000000000000000000090611574565b7f00000000000000000000000000000000000000000000000000000000000000006001600160a01b0316827f3a9c1cd29cd3be251a72ce3c367c27dc1cb697ac4589965b76a83f9a25ca0710836002015460405161153c91815260200190565b60405180910390a35050565b5f546001600160a01b03163314610a285760405163118cdaa760e01b8152336004820152602401610380565b604080516001600160a01b038416602482015260448082018490528251808303909101815260649091019091526020810180516001600160e01b031663a9059cbb60e01b1790526115c69084906115e4565b505050565b600180546001600160a01b03191690556104f881611656565b5f8060205f8451602086015f885af180611603576040513d5f823e3d81fd5b50505f513d9150811561161a578060011415611627565b6001600160a01b0384163b155b1561165057604051635274afe760e01b81526001600160a01b0385166004820152602401610380565b50505050565b5f80546001600160a01b038381166001600160a01b0319831681178455604051919092169283917f8be0079c531659141344cd1fd0a4f28419497f9722a3daafe3b4186f6b6457e09190a35050565b6040518060a001604052805f6001600160a01b03168152602001606081526020015f81526020015f81526020015f60038111156116e4576116e461177e565b905290565b80356001600160a01b03811681146116ff575f80fd5b919050565b5f60208284031215611714575f80fd5b61171d826116e9565b9392505050565b5f60208284031215611734575f80fd5b5035919050565b5f81518084525f5b8181101561175f57602081850181015186830182015201611743565b505f602082860101526020601f19601f83011685010191505092915050565b634e487b7160e01b5f52602160045260245ffd5b600481106117ae57634e487b7160e01b5f52602160045260245ffd5b9052565b6001600160a01b038616815260a0602082018190525f906117d59083018761173b565b90508460408301528360608301526117f06080830184611792565b9695505050505050565b803580151581146116ff575f80fd5b5f806040838503121561181a575f80fd5b8235915061182a602084016117fa565b90509250929050565b5f8060408385031215611844575f80fd5b61184d836116e9565b915061182a602084016117fa565b5f8083601f84011261186b575f80fd5b50813567ffffffffffffffff811115611882575f80fd5b602083019150836020828501011115611899575f80fd5b9250929050565b5f805f805f608086880312156118b4575f80fd5b853567ffffffffffffffff8111156118ca575f80fd5b6118d68882890161185b565b90965094506118e99050602087016116e9565b94979396509394604081013594506060013592915050565b5f805f805f805f805f805f6101408c8e03121561191c575f80fd5b8b359a5060208c013567ffffffffffffffff811115611939575f80fd5b6119458e828f0161185b565b909b509950611958905060408d016116e9565b975060608c0135965060808c0135955060a08c0135945060c08c0135935060e08c013560ff81168114611989575f80fd5b809350506101008c013591506101208c013590509295989b509295989b9093969950565b602080825282516001600160a01b03168282015282015160a060408301525f906119da60c084018261173b565b905060408401516060840152606084015160808401526080840151611a0260a0850182611792565b509392505050565b60208082526015908201527415d85cda515cd8dc9bddce881b9bdd08199bdd5b99605a1b604082015260600190565b60208082526017908201527f57617369457363726f773a206e6f742070656e64696e67000000000000000000604082015260600190565b80820180821115611a8f57634e487b7160e01b5f52601160045260245ffd5b92915050565b600181811c90821680611aa957607f821691505b602082108103611ac757634e487b7160e01b5f52602260045260245ffd5b50919050565b60208082526018908201527f57617369457363726f773a206e6f74206f70657261746f720000000000000000604082015260600190565b81835281816020850137505f828201602090810191909152601f909101601f19169091010190565b60a081525f611b3f60a08301888a611b04565b6001600160a01b03969096166020830152506040810193909352606083019190915260809091015292915050565b634e487b7160e01b5f52604160045260245ffd5b601f8211156115c657805f5260205f20601f840160051c81016020851015611ba65750805b601f840160051c820191505b81811015611bc5575f8155600101611bb2565b5050505050565b815167ffffffffffffffff811115611be657611be6611b6d565b611bfa81611bf48454611a95565b84611b81565b602080601f831160018114611c2d575f8415611c165750858301515b5f19600386901b1c1916600185901b178555611c84565b5f85815260208120601f198616915b82811015611c5b57888601518255948401946001909101908401611c3c565b5085821015611c7857878501515f19600388901b60f8161c191681555b505060018460011b0185555b505050505050565b604081525f611c9f604083018587611b04565b905082602083015294935050505056fea26469706673582212202dc1da7eca7ef5cb7e4f572f37f735a50c8b8c3ea57d82c69c8eb822b522f41a64736f6c63430008180033","linkReferences":{}},"methodIdentifiers":{"EMERGENCY_TIMEOUT()":"7f264076","RELEASE_TIMEOUT()":"f08a0767","acceptOwnership()":"79ba5097","computeEscrowId(string,address,uint256,bytes32)":"ad6d8869","createEscrow(bytes32,string,address,uint256,uint256,uint256,bytes32,uint8,bytes32,bytes32)":"e673fdd5","disputeEscrow(bytes32)":"cfd24522","emergencyRefund(bytes32)":"d92e0af2","escrows(bytes32)":"2d83549c","getEscrow(bytes32)":"f023b811","marketplace()":"abc8c7af","operators(address)":"13e7c9d8","owner()":"8da5cb5b","pendingOwner()":"e30c3978","refundEscrow(bytes32)":"47aed508","refundExpired(bytes32)":"cc3e049b","releaseEscrow(bytes32)":"bf89fc61","releaseExpired(bytes32)":"2742c5e2","renounceOwnership()":"715018a6","resolveDispute(bytes32,bool)":"43a0e3e6","setOperator(address,bool)":"558a7297","transferOwnership(address)":"f2fde38b","usdc()":"3e413bee"},"id":65}