{"abi":[{"type":"constructor","inputs":[{"name":"_usdc","type":"address","internalType":"address"},{"name":"_treasury","type":"address","internalType":"address"}],"stateMutability":"nonpayable"},{"type":"function","name":"EMERGENCY_TIMEOUT","inputs":[],"outputs":[{"name":"","type":"uint256","internalType":"uint256"}],"stateMutability":"view"},{"type":"function","name":"FEE_TIMELOCK","inputs":[],"outputs":[{"name":"","type":"uint256","internalType":"uint256"}],"stateMutability":"view"},{"type":"function","name":"TREASURY_TIMELOCK","inputs":[],"outputs":[{"name":"","type":"uint256","internalType":"uint256"}],"stateMutability":"view"},{"type":"function","name":"UPKEEP_INTERVAL","inputs":[],"outputs":[{"name":"","type":"uint256","internalType":"uint256"}],"stateMutability":"view"},{"type":"function","name":"acceptOwnership","inputs":[],"outputs":[],"stateMutability":"nonpayable"},{"type":"function","name":"agents","inputs":[{"name":"","type":"string","internalType":"string"}],"outputs":[{"name":"creator","type":"address","internalType":"address"},{"name":"pricePerCall","type":"uint256","internalType":"uint256"},{"name":"erc8004Id","type":"uint64","internalType":"uint64"}],"stateMutability":"view"},{"type":"function","name":"cancelFee","inputs":[],"outputs":[],"stateMutability":"nonpayable"},{"type":"function","name":"cancelTreasury","inputs":[],"outputs":[],"stateMutability":"nonpayable"},{"type":"function","name":"checkSolvency","inputs":[],"outputs":[{"name":"solvent","type":"bool","internalType":"bool"},{"name":"totalAccounted","type":"uint256","internalType":"uint256"},{"name":"contractBalance","type":"uint256","internalType":"uint256"}],"stateMutability":"view"},{"type":"function","name":"checkUpkeep","inputs":[{"name":"","type":"bytes","internalType":"bytes"}],"outputs":[{"name":"upkeepNeeded","type":"bool","internalType":"bool"},{"name":"","type":"bytes","internalType":"bytes"}],"stateMutability":"view"},{"type":"function","name":"claimEarnings","inputs":[{"name":"creator","type":"address","internalType":"address"},{"name":"grossAmount","type":"uint256","internalType":"uint256"},{"name":"deadline","type":"uint256","internalType":"uint256"},{"name":"nonce","type":"bytes32","internalType":"bytes32"},{"name":"sig","type":"bytes","internalType":"bytes"}],"outputs":[],"stateMutability":"nonpayable"},{"type":"function","name":"computePaymentId","inputs":[{"name":"slug","type":"string","internalType":"string"},{"name":"payer","type":"address","internalType":"address"},{"name":"amount","type":"uint256","internalType":"uint256"},{"name":"nonce","type":"bytes32","internalType":"bytes32"}],"outputs":[{"name":"","type":"bytes32","internalType":"bytes32"}],"stateMutability":"view"},{"type":"function","name":"dailySettledAmount","inputs":[],"outputs":[{"name":"","type":"uint256","internalType":"uint256"}],"stateMutability":"view"},{"type":"function","name":"dailySettlementCap","inputs":[],"outputs":[{"name":"","type":"uint256","internalType":"uint256"}],"stateMutability":"view"},{"type":"function","name":"dailySettlementReset","inputs":[],"outputs":[{"name":"","type":"uint256","internalType":"uint256"}],"stateMutability":"view"},{"type":"function","name":"depositForKey","inputs":[{"name":"keyId","type":"bytes32","internalType":"bytes32"},{"name":"owner","type":"address","internalType":"address"},{"name":"amount","type":"uint256","internalType":"uint256"},{"name":"validAfter","type":"uint256","internalType":"uint256"},{"name":"validBefore","type":"uint256","internalType":"uint256"},{"name":"nonce","type":"bytes32","internalType":"bytes32"},{"name":"v","type":"uint8","internalType":"uint8"},{"name":"r","type":"bytes32","internalType":"bytes32"},{"name":"s","type":"bytes32","internalType":"bytes32"}],"outputs":[],"stateMutability":"nonpayable"},{"type":"function","name":"earnings","inputs":[{"name":"","type":"address","internalType":"address"}],"outputs":[{"name":"","type":"uint256","internalType":"uint256"}],"stateMutability":"view"},{"type":"function","name":"eip712Domain","inputs":[],"outputs":[{"name":"fields","type":"bytes1","internalType":"bytes1"},{"name":"name","type":"string","internalType":"string"},{"name":"version","type":"string","internalType":"string"},{"name":"chainId","type":"uint256","internalType":"uint256"},{"name":"verifyingContract","type":"address","internalType":"address"},{"name":"salt","type":"bytes32","internalType":"bytes32"},{"name":"extensions","type":"uint256[]","internalType":"uint256[]"}],"stateMutability":"view"},{"type":"function","name":"emergencyWithdrawKey","inputs":[{"name":"keyId","type":"bytes32","internalType":"bytes32"}],"outputs":[],"stateMutability":"nonpayable"},{"type":"function","name":"executeFee","inputs":[],"outputs":[],"stateMutability":"nonpayable"},{"type":"function","name":"executeTreasury","inputs":[],"outputs":[],"stateMutability":"nonpayable"},{"type":"function","name":"freeRegistrationsPerUser","inputs":[],"outputs":[{"name":"","type":"uint256","internalType":"uint256"}],"stateMutability":"view"},{"type":"function","name":"getAgent","inputs":[{"name":"slug","type":"string","internalType":"string"}],"outputs":[{"name":"","type":"tuple","internalType":"struct WasiAIMarketplace.Agent","components":[{"name":"creator","type":"address","internalType":"address"},{"name":"pricePerCall","type":"uint256","internalType":"uint256"},{"name":"erc8004Id","type":"uint64","internalType":"uint64"}]}],"stateMutability":"view"},{"type":"function","name":"getDailySettlementStatus","inputs":[],"outputs":[{"name":"cap","type":"uint256","internalType":"uint256"},{"name":"settled","type":"uint256","internalType":"uint256"},{"name":"resetsAt","type":"uint256","internalType":"uint256"}],"stateMutability":"view"},{"type":"function","name":"getKeyBalance","inputs":[{"name":"keyId","type":"bytes32","internalType":"bytes32"}],"outputs":[{"name":"","type":"uint256","internalType":"uint256"}],"stateMutability":"view"},{"type":"function","name":"getPendingEarnings","inputs":[{"name":"creator","type":"address","internalType":"address"}],"outputs":[{"name":"","type":"uint256","internalType":"uint256"}],"stateMutability":"view"},{"type":"function","name":"getReputation","inputs":[{"name":"slug","type":"string","internalType":"string"}],"outputs":[{"name":"avgRating","type":"uint16","internalType":"uint16"},{"name":"voteCount","type":"uint32","internalType":"uint32"},{"name":"lastUpdated","type":"uint64","internalType":"uint64"}],"stateMutability":"view"},{"type":"function","name":"getStats","inputs":[],"outputs":[{"name":"volume","type":"uint256","internalType":"uint256"},{"name":"invocations","type":"uint256","internalType":"uint256"},{"name":"feeBps","type":"uint16","internalType":"uint16"}],"stateMutability":"view"},{"type":"function","name":"keyBalances","inputs":[{"name":"","type":"bytes32","internalType":"bytes32"}],"outputs":[{"name":"","type":"uint256","internalType":"uint256"}],"stateMutability":"view"},{"type":"function","name":"keyOwners","inputs":[{"name":"","type":"bytes32","internalType":"bytes32"}],"outputs":[{"name":"","type":"address","internalType":"address"}],"stateMutability":"view"},{"type":"function","name":"lastOperatorActivity","inputs":[],"outputs":[{"name":"","type":"uint256","internalType":"uint256"}],"stateMutability":"view"},{"type":"function","name":"lastUpkeepTimestamp","inputs":[],"outputs":[{"name":"","type":"uint256","internalType":"uint256"}],"stateMutability":"view"},{"type":"function","name":"operators","inputs":[{"name":"","type":"address","internalType":"address"}],"outputs":[{"name":"","type":"bool","internalType":"bool"}],"stateMutability":"view"},{"type":"function","name":"owner","inputs":[],"outputs":[{"name":"","type":"address","internalType":"address"}],"stateMutability":"view"},{"type":"function","name":"pause","inputs":[],"outputs":[],"stateMutability":"nonpayable"},{"type":"function","name":"paused","inputs":[],"outputs":[{"name":"","type":"bool","internalType":"bool"}],"stateMutability":"view"},{"type":"function","name":"pendingFeeBps","inputs":[],"outputs":[{"name":"","type":"uint16","internalType":"uint16"}],"stateMutability":"view"},{"type":"function","name":"pendingFeeTimestamp","inputs":[],"outputs":[{"name":"","type":"uint256","internalType":"uint256"}],"stateMutability":"view"},{"type":"function","name":"pendingOwner","inputs":[],"outputs":[{"name":"","type":"address","internalType":"address"}],"stateMutability":"view"},{"type":"function","name":"pendingTreasury","inputs":[],"outputs":[{"name":"","type":"address","internalType":"address"}],"stateMutability":"view"},{"type":"function","name":"pendingTreasuryTimestamp","inputs":[],"outputs":[{"name":"","type":"uint256","internalType":"uint256"}],"stateMutability":"view"},{"type":"function","name":"performUpkeep","inputs":[{"name":"","type":"bytes","internalType":"bytes"}],"outputs":[],"stateMutability":"nonpayable"},{"type":"function","name":"platformFeeBps","inputs":[],"outputs":[{"name":"","type":"uint16","internalType":"uint16"}],"stateMutability":"view"},{"type":"function","name":"proposeFee","inputs":[{"name":"bps","type":"uint16","internalType":"uint16"}],"outputs":[],"stateMutability":"nonpayable"},{"type":"function","name":"proposeTreasury","inputs":[{"name":"_treasury","type":"address","internalType":"address"}],"outputs":[],"stateMutability":"nonpayable"},{"type":"function","name":"recordInvocation","inputs":[{"name":"slug","type":"string","internalType":"string"},{"name":"payer","type":"address","internalType":"address"},{"name":"amount","type":"uint256","internalType":"uint256"},{"name":"paymentId","type":"bytes32","internalType":"bytes32"}],"outputs":[],"stateMutability":"nonpayable"},{"type":"function","name":"refundKeyToEarnings","inputs":[{"name":"keyId","type":"bytes32","internalType":"bytes32"}],"outputs":[],"stateMutability":"nonpayable"},{"type":"function","name":"registerAgent","inputs":[{"name":"slug","type":"string","internalType":"string"},{"name":"pricePerCall","type":"uint256","internalType":"uint256"},{"name":"creator","type":"address","internalType":"address"},{"name":"erc8004Id","type":"uint64","internalType":"uint64"}],"outputs":[],"stateMutability":"nonpayable"},{"type":"function","name":"registrationFee","inputs":[],"outputs":[{"name":"","type":"uint256","internalType":"uint256"}],"stateMutability":"view"},{"type":"function","name":"renounceOwnership","inputs":[],"outputs":[],"stateMutability":"nonpayable"},{"type":"function","name":"reputations","inputs":[{"name":"","type":"string","internalType":"string"}],"outputs":[{"name":"avgRating","type":"uint16","internalType":"uint16"},{"name":"voteCount","type":"uint32","internalType":"uint32"},{"name":"lastUpdated","type":"uint64","internalType":"uint64"}],"stateMutability":"view"},{"type":"function","name":"selfRegisterAgent","inputs":[{"name":"slug","type":"string","internalType":"string"},{"name":"pricePerCall","type":"uint256","internalType":"uint256"},{"name":"erc8004Id","type":"uint64","internalType":"uint64"}],"outputs":[],"stateMutability":"nonpayable"},{"type":"function","name":"setDailySettlementCap","inputs":[{"name":"newCap","type":"uint256","internalType":"uint256"}],"outputs":[],"stateMutability":"nonpayable"},{"type":"function","name":"setFreeRegistrationsPerUser","inputs":[{"name":"_count","type":"uint256","internalType":"uint256"}],"outputs":[],"stateMutability":"nonpayable"},{"type":"function","name":"setOperator","inputs":[{"name":"operator","type":"address","internalType":"address"},{"name":"active","type":"bool","internalType":"bool"}],"outputs":[],"stateMutability":"nonpayable"},{"type":"function","name":"setRegistrationFee","inputs":[{"name":"_fee","type":"uint256","internalType":"uint256"}],"outputs":[],"stateMutability":"nonpayable"},{"type":"function","name":"settleKeyBatch","inputs":[{"name":"keyId","type":"bytes32","internalType":"bytes32"},{"name":"slugs","type":"string[]","internalType":"string[]"},{"name":"amounts","type":"uint256[]","internalType":"uint256[]"}],"outputs":[],"stateMutability":"nonpayable"},{"type":"function","name":"submitReputationBatch","inputs":[{"name":"slugs","type":"string[]","internalType":"string[]"},{"name":"avgRatings","type":"uint16[]","internalType":"uint16[]"},{"name":"voteCounts","type":"uint32[]","internalType":"uint32[]"}],"outputs":[],"stateMutability":"nonpayable"},{"type":"function","name":"totalEarnings","inputs":[],"outputs":[{"name":"","type":"uint256","internalType":"uint256"}],"stateMutability":"view"},{"type":"function","name":"totalInvocations","inputs":[],"outputs":[{"name":"","type":"uint256","internalType":"uint256"}],"stateMutability":"view"},{"type":"function","name":"totalKeyBalances","inputs":[],"outputs":[{"name":"","type":"uint256","internalType":"uint256"}],"stateMutability":"view"},{"type":"function","name":"totalVolume","inputs":[],"outputs":[{"name":"","type":"uint256","internalType":"uint256"}],"stateMutability":"view"},{"type":"function","name":"transferAgent","inputs":[{"name":"agentId","type":"string","internalType":"string"},{"name":"newOwner","type":"address","internalType":"address"}],"outputs":[],"stateMutability":"nonpayable"},{"type":"function","name":"transferOwnership","inputs":[{"name":"newOwner","type":"address","internalType":"address"}],"outputs":[],"stateMutability":"nonpayable"},{"type":"function","name":"treasury","inputs":[],"outputs":[{"name":"","type":"address","internalType":"address"}],"stateMutability":"view"},{"type":"function","name":"unpause","inputs":[],"outputs":[],"stateMutability":"nonpayable"},{"type":"function","name":"updateAgent","inputs":[{"name":"slug","type":"string","internalType":"string"},{"name":"newPrice","type":"uint256","internalType":"uint256"}],"outputs":[],"stateMutability":"nonpayable"},{"type":"function","name":"usdc","inputs":[],"outputs":[{"name":"","type":"address","internalType":"contract IERC20"}],"stateMutability":"view"},{"type":"function","name":"usedPaymentIds","inputs":[{"name":"","type":"bytes32","internalType":"bytes32"}],"outputs":[{"name":"","type":"bool","internalType":"bool"}],"stateMutability":"view"},{"type":"function","name":"usedVouchers","inputs":[{"name":"","type":"bytes32","internalType":"bytes32"}],"outputs":[{"name":"","type":"bool","internalType":"bool"}],"stateMutability":"view"},{"type":"function","name":"userRegistrationCount","inputs":[{"name":"","type":"address","internalType":"address"}],"outputs":[{"name":"","type":"uint256","internalType":"uint256"}],"stateMutability":"view"},{"type":"function","name":"withdraw","inputs":[],"outputs":[],"stateMutability":"nonpayable"},{"type":"function","name":"withdrawFor","inputs":[{"name":"creator","type":"address","internalType":"address"}],"outputs":[],"stateMutability":"nonpayable"},{"type":"function","name":"withdrawKey","inputs":[{"name":"keyId","type":"bytes32","internalType":"bytes32"},{"name":"amount","type":"uint256","internalType":"uint256"}],"outputs":[],"stateMutability":"nonpayable"},{"type":"event","name":"AgentInvoked","inputs":[{"name":"slug","type":"string","indexed":true,"internalType":"string"},{"name":"payer","type":"address","indexed":true,"internalType":"address"},{"name":"amount","type":"uint256","indexed":false,"internalType":"uint256"},{"name":"creatorShare","type":"uint256","indexed":false,"internalType":"uint256"},{"name":"platformShare","type":"uint256","indexed":false,"internalType":"uint256"}],"anonymous":false},{"type":"event","name":"AgentRegistered","inputs":[{"name":"slug","type":"string","indexed":true,"internalType":"string"},{"name":"creator","type":"address","indexed":true,"internalType":"address"},{"name":"pricePerCall","type":"uint256","indexed":false,"internalType":"uint256"},{"name":"erc8004Id","type":"uint64","indexed":false,"internalType":"uint64"}],"anonymous":false},{"type":"event","name":"AgentTransferred","inputs":[{"name":"agentId","type":"string","indexed":true,"internalType":"string"},{"name":"oldCreator","type":"address","indexed":true,"internalType":"address"},{"name":"newCreator","type":"address","indexed":true,"internalType":"address"}],"anonymous":false},{"type":"event","name":"AgentUpdated","inputs":[{"name":"slug","type":"string","indexed":true,"internalType":"string"},{"name":"newPrice","type":"uint256","indexed":false,"internalType":"uint256"}],"anonymous":false},{"type":"event","name":"DailyCapUpdated","inputs":[{"name":"oldCap","type":"uint256","indexed":false,"internalType":"uint256"},{"name":"newCap","type":"uint256","indexed":false,"internalType":"uint256"}],"anonymous":false},{"type":"event","name":"EIP712DomainChanged","inputs":[],"anonymous":false},{"type":"event","name":"EarningsClaimed","inputs":[{"name":"creator","type":"address","indexed":true,"internalType":"address"},{"name":"grossAmount","type":"uint256","indexed":false,"internalType":"uint256"},{"name":"creatorShare","type":"uint256","indexed":false,"internalType":"uint256"},{"name":"platformShare","type":"uint256","indexed":false,"internalType":"uint256"},{"name":"nonce","type":"bytes32","indexed":false,"internalType":"bytes32"}],"anonymous":false},{"type":"event","name":"FeeCanceled","inputs":[{"name":"canceledBps","type":"uint16","indexed":true,"internalType":"uint16"}],"anonymous":false},{"type":"event","name":"FeeProposed","inputs":[{"name":"newBps","type":"uint16","indexed":true,"internalType":"uint16"},{"name":"executeAfter","type":"uint256","indexed":false,"internalType":"uint256"}],"anonymous":false},{"type":"event","name":"KeyCallSettled","inputs":[{"name":"keyId","type":"bytes32","indexed":true,"internalType":"bytes32"},{"name":"slug","type":"string","indexed":false,"internalType":"string"},{"name":"amount","type":"uint256","indexed":false,"internalType":"uint256"},{"name":"creatorShare","type":"uint256","indexed":false,"internalType":"uint256"},{"name":"platformShare","type":"uint256","indexed":false,"internalType":"uint256"}],"anonymous":false},{"type":"event","name":"KeyFunded","inputs":[{"name":"keyId","type":"bytes32","indexed":true,"internalType":"bytes32"},{"name":"owner","type":"address","indexed":true,"internalType":"address"},{"name":"amount","type":"uint256","indexed":false,"internalType":"uint256"}],"anonymous":false},{"type":"event","name":"KeyRefunded","inputs":[{"name":"keyId","type":"bytes32","indexed":true,"internalType":"bytes32"},{"name":"owner","type":"address","indexed":true,"internalType":"address"},{"name":"amount","type":"uint256","indexed":false,"internalType":"uint256"}],"anonymous":false},{"type":"event","name":"KeyWithdrawn","inputs":[{"name":"keyId","type":"bytes32","indexed":true,"internalType":"bytes32"},{"name":"owner","type":"address","indexed":true,"internalType":"address"},{"name":"amount","type":"uint256","indexed":false,"internalType":"uint256"}],"anonymous":false},{"type":"event","name":"OperatorSet","inputs":[{"name":"operator","type":"address","indexed":true,"internalType":"address"},{"name":"active","type":"bool","indexed":false,"internalType":"bool"}],"anonymous":false},{"type":"event","name":"OwnershipTransferStarted","inputs":[{"name":"previousOwner","type":"address","indexed":true,"internalType":"address"},{"name":"newOwner","type":"address","indexed":true,"internalType":"address"}],"anonymous":false},{"type":"event","name":"OwnershipTransferred","inputs":[{"name":"previousOwner","type":"address","indexed":true,"internalType":"address"},{"name":"newOwner","type":"address","indexed":true,"internalType":"address"}],"anonymous":false},{"type":"event","name":"Paused","inputs":[{"name":"account","type":"address","indexed":false,"internalType":"address"}],"anonymous":false},{"type":"event","name":"PlatformFeeUpdated","inputs":[{"name":"oldBps","type":"uint16","indexed":false,"internalType":"uint16"},{"name":"newBps","type":"uint16","indexed":false,"internalType":"uint16"}],"anonymous":false},{"type":"event","name":"RegistrationFeeUpdated","inputs":[{"name":"newFee","type":"uint256","indexed":false,"internalType":"uint256"}],"anonymous":false},{"type":"event","name":"ReputationBatchSubmitted","inputs":[{"name":"batchSize","type":"uint256","indexed":true,"internalType":"uint256"},{"name":"timestamp","type":"uint256","indexed":true,"internalType":"uint256"}],"anonymous":false},{"type":"event","name":"TreasuryCanceled","inputs":[{"name":"canceledProposal","type":"address","indexed":true,"internalType":"address"}],"anonymous":false},{"type":"event","name":"TreasuryProposed","inputs":[{"name":"proposed","type":"address","indexed":true,"internalType":"address"},{"name":"executeAfter","type":"uint256","indexed":false,"internalType":"uint256"}],"anonymous":false},{"type":"event","name":"TreasuryUpdated","inputs":[{"name":"oldTreasury","type":"address","indexed":true,"internalType":"address"},{"name":"newTreasury","type":"address","indexed":true,"internalType":"address"}],"anonymous":false},{"type":"event","name":"Unpaused","inputs":[{"name":"account","type":"address","indexed":false,"internalType":"address"}],"anonymous":false},{"type":"event","name":"UpkeepPerformed","inputs":[{"name":"timestamp","type":"uint256","indexed":true,"internalType":"uint256"},{"name":"performer","type":"address","indexed":true,"internalType":"address"}],"anonymous":false},{"type":"event","name":"Withdrawn","inputs":[{"name":"creator","type":"address","indexed":true,"internalType":"address"},{"name":"amount","type":"uint256","indexed":false,"internalType":"uint256"}],"anonymous":false},{"type":"error","name":"ECDSAInvalidSignature","inputs":[]},{"type":"error","name":"ECDSAInvalidSignatureLength","inputs":[{"name":"length","type":"uint256","internalType":"uint256"}]},{"type":"error","name":"ECDSAInvalidSignatureS","inputs":[{"name":"s","type":"bytes32","internalType":"bytes32"}]},{"type":"error","name":"EnforcedPause","inputs":[]},{"type":"error","name":"ExpectedPause","inputs":[]},{"type":"error","name":"InvalidShortString","inputs":[]},{"type":"error","name":"OwnableInvalidOwner","inputs":[{"name":"owner","type":"address","internalType":"address"}]},{"type":"error","name":"OwnableUnauthorizedAccount","inputs":[{"name":"account","type":"address","internalType":"address"}]},{"type":"error","name":"ReentrancyGuardReentrantCall","inputs":[]},{"type":"error","name":"SafeERC20FailedOperation","inputs":[{"name":"token","type":"address","internalType":"address"}]},{"type":"error","name":"StringTooLong","inputs":[{"name":"str","type":"string","internalType":"string"}]}],"bytecode":{"object":"0x6101806040526006805461ffff60a01b1916607d60a31b17905560026008553480156200002a575f80fd5b5060405162004e6438038062004e648339810160408190526200004d91620003cd565b60408051808201825260118152705761736941494d61726b6574706c61636560781b602080830191909152825180840190935260018352603160f81b90830152903380620000b557604051631e4fbdf760e01b81525f60048201526024015b60405180910390fd5b620000c081620002ca565b5060016002556003805460ff19169055620000dd826004620002e8565b61012052620000ee816005620002e8565b61014052815160208084019190912060e052815190820120610100524660a0526200017b60e05161010051604080517f8b73c3c69bb8fe3d512ecc4cf759cc79239f7b179b0ffacaa9a75d522b39400f60208201529081019290925260608201524660808201523060a08201525f9060c00160405160208183030381529060405280519060200120905090565b60805250503060c0526001600160a01b038216620001d05760405162461bcd60e51b81526020600482015260116024820152705761736941493a207a65726f205553444360781b6044820152606401620000ac565b6001600160a01b038116620002285760405162461bcd60e51b815260206004820152601560248201527f5761736941493a207a65726f20747265617375727900000000000000000000006044820152606401620000ac565b6001600160a01b0382811661016052600680546001600160a01b031916918316919091178155335f908152601060209081526040808320805460ff1916600117905542601c819055601d8190556402540be40060155560175592548351928352600160a01b900461ffff16908201527f84e4fe32bf74c4011a7e1fde79c63acdffaf92a0112cde153e7b0abee665bc6b910160405180910390a15050620005df565b600180546001600160a01b0319169055620002e58162000320565b50565b5f6020835110156200030757620002ff836200036f565b90506200031a565b81620003148482620004a1565b5060ff90505b92915050565b5f80546001600160a01b038381166001600160a01b0319831681178455604051919092169283917f8be0079c531659141344cd1fd0a4f28419497f9722a3daafe3b4186f6b6457e09190a35050565b5f80829050601f815111156200039c578260405163305a27a960e01b8152600401620000ac91906200056d565b8051620003a982620005bb565b179392505050565b80516001600160a01b0381168114620003c8575f80fd5b919050565b5f8060408385031215620003df575f80fd5b620003ea83620003b1565b9150620003fa60208401620003b1565b90509250929050565b634e487b7160e01b5f52604160045260245ffd5b600181811c908216806200042c57607f821691505b6020821081036200044b57634e487b7160e01b5f52602260045260245ffd5b50919050565b601f8211156200049c57805f5260205f20601f840160051c81016020851015620004785750805b601f840160051c820191505b8181101562000499575f815560010162000484565b50505b505050565b81516001600160401b03811115620004bd57620004bd62000403565b620004d581620004ce845462000417565b8462000451565b602080601f8311600181146200050b575f8415620004f35750858301515b5f19600386901b1c1916600185901b17855562000565565b5f85815260208120601f198616915b828110156200053b578886015182559484019460019091019084016200051a565b50858210156200055957878501515f19600388901b60f8161c191681555b505060018460011b0185555b505050505050565b5f602080835283518060208501525f5b818110156200059b578581018301518582016040015282016200057d565b505f604082860101526040601f19601f8301168501019250505092915050565b805160208083015191908110156200044b575f1960209190910360031b1b16919050565b60805160a05160c05160e051610100516101205161014051610160516147ce620006965f395f81816105e101528181610ed201528181610fe10152818161101f015281816117cc0152818161187201528181611db401528181611ff5015281816122dd0152818161243201528181612acd01528181612ed201528181612faf01526132f301525f61387801525f61384601525f6139b601525f61398e01525f6138e901525f61391301525f61393d01526147ce5ff3fe608060405234801561000f575f80fd5b506004361061042d575f3560e01c8063747d298f1161022c578063c08151dc11610135578063dad1df98116100bf578063f2fde38b11610084578063f2fde38b14610a9a578063f4489dd914610aad578063f4e984e714610ab6578063f8c8f5f814610abf578063fca4a52814610ac7575f80fd5b8063dad1df9814610a31578063e1f077ec14610a50578063e30c397814610a63578063e4f0649214610a74578063f110ed6714610a87575f80fd5b8063c59d484711610105578063c59d484714610936578063c7926d0414610965578063cf6ee0cb1461098a578063d67e55d514610a05578063d8cdc8dc14610a0e575f80fd5b8063c08151dc146108a4578063c320c727146108ad578063c359f082146108c0578063c38a0115146108e8575f80fd5b80638da5cb5b116101b6578063b7c16ce811610186578063b7c16ce81461083f578063bb2a46d914610848578063bc2852be14610850578063bc651f6c1461086f578063bfa556e414610882575f80fd5b80638da5cb5b146108005780639eca672c14610810578063b15139fa14610823578063b7acd7a81461082c575f80fd5b80637f264076116101fc5780637f26407614610798578063824a7507146107a257806382f1b6b1146107b55780638456cb59146107dd57806384b0196e146107e5575f80fd5b8063747d298f1461072d5780637589af2114610740578063794464e91461074957806379ba509714610790575f80fd5b80633e413bee1161033957806355665727116102c35780635f81a57c116102885780635f81a57c146106df57806361d027b3146106e8578063624cffd4146106fb5780636e04ff0d14610704578063715018a614610725575f80fd5b80635566572714610688578063558a72971461069b5780635c975abb146106ae5780635d3c95cd146106b95780635dc75b8d146106cc575f80fd5b80634c618e68116103095780634c618e681461061e5780634d19e5ce1461062c57806352e1e8a714610634578063541f593c14610656578063543fd31314610669575f80fd5b80633e413bee146105dc5780633f4ba83a146106035780634354d521146104fe5780634585e33b1461060b575f80fd5b8063214529ad116103ba5780632ed6b75d1161038a5780632ed6b75d146105425780632fb404451461056d5780633ccfd60b146105805780633d1103f4146105885780633db7a8f4146105c9575f80fd5b8063214529ad146104fe57806322dcd13e146105085780632bb3dcc8146105305780632df3eba414610539575f80fd5b8063126fbc6f11610400578063126fbc6f1461048957806313e7c9d8146104a857806314025dcd146104da578063146ecfe2146104e257806314c44e09146104f5575f80fd5b806301b348541461043157806303526210146104465780630c236909146104635780630cbc649a14610476575b5f80fd5b61044461043f366004613dfb565b610ad0565b005b6104506201437081565b6040519081526020015b60405180910390f35b610444610471366004613e42565b610bfb565b610444610484366004613e74565b610c08565b610450610497366004613edf565b60096020525f908152604090205481565b6104ca6104b6366004613edf565b60106020525f908152604090205460ff1681565b604051901515815260200161045a565b6104446110b2565b6104446104f0366004613f15565b611147565b61045060075481565b6104506202a30081565b60065461051d90600160a01b900461ffff1681565b60405161ffff909116815260200161045a565b61045060125481565b61045060145481565b600c54610555906001600160a01b031681565b6040516001600160a01b03909116815260200161045a565b61044461057b366004613fbd565b611357565b610444611808565b61059b610596366004614030565b6118db565b6040805161ffff909416845263ffffffff90921660208401526001600160401b03169082015260600161045a565b6104506105d736600461406e565b61194c565b6105557f000000000000000000000000000000000000000000000000000000000000000081565b610444611989565b610444610619366004614030565b611999565b600a5461051d9061ffff1681565b610444611a2e565b6104ca610642366004613e42565b601a6020525f908152604090205460ff1681565b610444610664366004613e42565b611add565b610450610677366004613edf565b600f6020525f908152604090205481565b6104446106963660046140ce565b611c83565b6104446106a93660046140ee565b611e20565b60035460ff166104ca565b6104446106c7366004614127565b611ed4565b6104446106da36600461406e565b612177565b61045060115481565b600654610555906001600160a01b031681565b610450601d5481565b610717610712366004614030565b6124fa565b60405161045a9291906141e4565b61044461251a565b61044461073b366004613e42565b61252b565b61045060155481565b61075c610757366004614030565b61260e565b6040805182516001600160a01b0316815260208084015190820152918101516001600160401b03169082015260600161045a565b610444612684565b61045062278d0081565b6104446107b0366004614206565b6126c5565b6104506107c3366004613edf565b6001600160a01b03165f908152600f602052604090205490565b6104446129f3565b6107ed612a03565b60405161045a9796959493929190614286565b5f546001600160a01b0316610555565b61044461081e366004613edf565b612a45565b61045060085481565b61044461083a36600461431d565b612b42565b610450600b5481565b610444612ca4565b61045061085e366004613e42565b5f9081526018602052604090205490565b61044461087d36600461436c565b612db3565b6104ca610890366004613e42565b601b6020525f908152604090205460ff1681565b61045060165481565b6104446108bb366004613e42565b612e63565b6105556108ce366004613e42565b60196020525f90815260409020546001600160a01b031681565b61059b6108f63660046143a1565b8051602081830181018051601e8252928201919093012091525461ffff81169062010000810463ffffffff1690600160301b90046001600160401b031683565b601154601254600654604080519384526020840192909252600160a01b900461ffff169082015260600161045a565b61096d612ea7565b60408051931515845260208401929092529082015260600161045a565b6109d76109983660046143a1565b8051602081830181018051600e825292820191909301209152805460018201546002909201546001600160a01b0390911691906001600160401b031683565b604080516001600160a01b03909416845260208401929092526001600160401b03169082015260600161045a565b610450601c5481565b610a16612f50565b6040805193845260208401929092529082015260600161045a565b610450610a3f366004613e42565b60186020525f908152604090205481565b610444610a5e36600461444b565b612f6f565b6001546001600160a01b0316610555565b610444610a82366004613e42565b6131f7565b610444610a95366004613edf565b61334e565b610444610aa8366004613edf565b613461565b61045060175481565b61045060135481565b6104446134d1565b610450600d5481565b5f600e8484604051610ae39291906144a3565b90815260405190819003602001902080549091506001600160a01b0316610b255760405162461bcd60e51b8152600401610b1c906144b2565b60405180910390fd5b80546001600160a01b0316331480610b4b5750335f9081526010602052604090205460ff165b80610b5f57505f546001600160a01b031633145b610ba45760405162461bcd60e51b815260206004820152601660248201527515d85cda50524e881b9bdd08185d5d1a1bdc9a5e995960521b6044820152606401610b1c565b60018101829055604051610bbb90859085906144a3565b604051908190038120838252907ff489a68a0dd0fec4ae0132a04380f9b7f01c78e423ed97785bbdef40b38b0a269060200160405180910390a250505050565b610c036135e3565b600855565b610c1061360f565b610c18613637565b6001600160a01b038616610c655760405162461bcd60e51b81526020600482015260146024820152732bb0b9b4a0a49d103d32b9379031b932b0ba37b960611b6044820152606401610b1c565b336001600160a01b03871614610cbd5760405162461bcd60e51b815260206004820152601e60248201527f5761736941493a2063616c6c6572206d7573742062652063726561746f7200006044820152606401610b1c565b83421115610d0d5760405162461bcd60e51b815260206004820152601760248201527f5761736941493a20766f756368657220657870697265640000000000000000006044820152606401610b1c565b5f838152601b602052604090205460ff1615610d6b5760405162461bcd60e51b815260206004820152601c60248201527f5761736941493a20766f756368657220616c72656164792075736564000000006044820152606401610b1c565b5f838152601b60209081526040808320805460ff1916600117905580517f299e83ea421df4a897fb3c119a786aee99561f325a0769df252011ff8f818d2e928101929092526001600160a01b03891690820152606081018790526080810186905260a0810185905260c0016040516020818303038152906040528051906020012090505f610df88261365b565b90505f610e3a8286868080601f0160208091040260200160405190810160405280939291908181526020018383808284375f9201919091525061368792505050565b6001600160a01b0381165f9081526010602052604090205490915060ff16610eaf5760405162461bcd60e51b815260206004820152602260248201527f5761736941493a20696e76616c6964206f70657261746f72207369676e617475604482015261726560f01b6064820152608401610b1c565b6013546040516370a0823160e01b81523060048201528991906001600160a01b037f000000000000000000000000000000000000000000000000000000000000000016906370a0823190602401602060405180830381865afa158015610f17573d5f803e3d5ffd5b505050506040513d601f19601f82011682018060405250810190610f3b91906144e9565b610f459190614514565b1015610f9d5760405162461bcd60e51b815260206004820152602160248201527f5761736941493a20696e73756666696369656e7420667265652062616c616e636044820152606560f81b6064820152608401610b1c565b6006545f9061271090610fbb90600160a01b900461ffff168b614527565b610fc5919061453e565b90505f610fd2828b614514565b90506110086001600160a01b037f0000000000000000000000000000000000000000000000000000000000000000168c836136af565b811561104857600654611048906001600160a01b037f000000000000000000000000000000000000000000000000000000000000000081169116846136af565b604080518b815260208101839052908101839052606081018990526001600160a01b038c16907f7c1baf99431f82a970a4a3490e0d9ba64bffbe05e26ccc6e03ec6646aed8d6679060800160405180910390a250505050506110aa6001600255565b505050505050565b6110ba6135e3565b5f600b54116111045760405162461bcd60e51b81526020600482015260166024820152755761736941493a206e6f2070656e64696e672066656560501b6044820152606401610b1c565b600a5460405161ffff909116907f92cd1a5b423c20bec4b2ee5fbdab2b5b5a5ab132454951e169a057d06af383d5905f90a2600a805461ffff191690555f600b55565b61114f61370e565b42601c55836111955760405162461bcd60e51b81526020600482015260126024820152715761736941493a20656d70747920736c756760701b6044820152606401610b1c565b6001600160a01b0382166111e25760405162461bcd60e51b81526020600482015260146024820152732bb0b9b4a0a49d103d32b9379031b932b0ba37b960611b6044820152606401610b1c565b5f6001600160a01b0316600e86866040516111fe9291906144a3565b908152604051908190036020019020546001600160a01b0316146112595760405162461bcd60e51b81526020600482015260126024820152712bb0b9b4a0a49d1039b63ab3903a30b5b2b760711b6044820152606401610b1c565b6040518060600160405280836001600160a01b03168152602001848152602001826001600160401b0316815250600e86866040516112989291906144a3565b9081526040805160209281900383018120845181546001600160a01b0319166001600160a01b0391821617825593850151600182015593909101516002909301805467ffffffffffffffff19166001600160401b039094169390931790925583169061130790879087906144a3565b604080519182900382208683526001600160401b0385166020840152917fd9d9021ea43d3d3c9dade18b99429310b2d5850ce11ce11ce52c599a4ad73e8891015b60405180910390a35050505050565b61135f61370e565b61136761360f565b61136f613637565b42601c558281146113925760405162461bcd60e51b8152600401610b1c9061455d565b826113d55760405162461bcd60e51b81526020600482015260136024820152720aec2e6d282927440cadae0e8f240c4c2e8c6d606b1b6044820152606401610b1c565b6101f48311156114215760405162461bcd60e51b81526020600482015260176024820152765761736941493a20626174636820746f6f206c6172676560481b6044820152606401610b1c565b5f805b8281101561145a5783838281811061143e5761143e614594565b905060200201358261145091906145a8565b9150600101611424565b505f868152601860205260409020548111156114b85760405162461bcd60e51b815260206004820181905260248201527f5761736941493a20696e73756666696369656e74206b65792062616c616e63656044820152606401610b1c565b6114c0613777565b6015541561152757601554816016546114d991906145a8565b11156115275760405162461bcd60e51b815260206004820152601a60248201527f5761736941493a206461696c79206361702065786365656465640000000000006044820152606401610b1c565b8060165f82825461153891906145a8565b90915550505f868152601860205260408120805483929061155a908490614514565b925050819055508060135f8282546115729190614514565b909155505f9050805b858110156117b4575f85858381811061159657611596614594565b90506020020135116115ba5760405162461bcd60e51b8152600401610b1c906145bb565b5f600e8888848181106115cf576115cf614594565b90506020028101906115e191906145e8565b6040516115ef9291906144a3565b90815260405190819003602001902080549091506001600160a01b03166116285760405162461bcd60e51b8152600401610b1c906144b2565b6006545f9061271090600160a01b900461ffff1688888681811061164e5761164e614594565b9050602002013561165f9190614527565b611669919061453e565b90505f8188888681811061167f5761167f614594565b905060200201356116909190614514565b83546001600160a01b03165f908152600f60205260408120805492935083929091906116bd9084906145a8565b925050819055508060145f8282546116d591906145a8565b909155506116e5905082866145a8565b94508787858181106116f9576116f9614594565b9050602002013560115f82825461171091906145a8565b92505081905550600160125f82825461172991906145a8565b909155508b90507f8935c1d7f28bc9346b228951d327c3ea488f1a511a1ddc7a12d60c67b006a5da8b8b8781811061176357611763614594565b905060200281019061177591906145e8565b8b8b8981811061178757611787614594565b9050602002013585876040516117a1959493929190614652565b60405180910390a250505060010161157b565b5080156117f5576006546117f5906001600160a01b037f000000000000000000000000000000000000000000000000000000000000000081169116836136af565b50506118016001600255565b5050505050565b61181061360f565b335f908152600f60205260409020548061183c5760405162461bcd60e51b8152600401610b1c90614682565b335f908152600f602052604081208190556014805483929061185f908490614514565b9091555061189990506001600160a01b037f00000000000000000000000000000000000000000000000000000000000000001633836136af565b60405181815233907f7084f5476618d8e60b11ef0d7d3f06914655adb8793e28ff7f018d4c76d505d59060200160405180910390a2506118d96001600255565b565b5f805f80601e86866040516118f19291906144a3565b90815260408051602092819003830181206060820183525461ffff811680835262010000820463ffffffff16948301859052600160301b9091046001600160401b0316919092018190529095509093509150505b9250925092565b5f858585858546604051602001611968969594939291906146b9565b60405160208183030381529060405280519060200120905095945050505050565b6119916135e3565b6118d9613797565b62014370601d54426119ab9190614514565b10156119f95760405162461bcd60e51b815260206004820152601960248201527f5761736941493a2075706b656570206e6f74206e6565646564000000000000006044820152606401610b1c565b42601d8190556040513391907f3c2e0495f7dc053543b36c0336e98fed8ee979198591d178e5316d0d70951581905f90a35050565b611a366135e3565b600c546001600160a01b0316611a8e5760405162461bcd60e51b815260206004820152601b60248201527f5761736941493a206e6f2070656e64696e6720747265617375727900000000006044820152606401610b1c565b600c80546001600160a01b031981169091555f600d8190556040516001600160a01b039092169182917f04eac4bcd045a19c7bf26af7656dc71269905c3f97b02aff2d3a5fe069b4a5cb91a250565b611ae561370e565b611aed61360f565b611af5613637565b42601c555f818152601960205260409020546001600160a01b0316611b525760405162461bcd60e51b81526020600482015260136024820152725761736941493a20756e6b6e6f776e206b657960681b6044820152606401610b1c565b5f8181526018602052604090205480611bad5760405162461bcd60e51b815260206004820152601960248201527f5761736941493a206e6f7468696e6720746f20726566756e64000000000000006044820152606401610b1c565b5f82815260186020526040812081905560138054839290611bcf908490614514565b90915550505f828152601960209081526040808320546001600160a01b03168352600f90915281208054839290611c079084906145a8565b925050819055508060145f828254611c1f91906145a8565b90915550505f828152601960209081526040918290205491518381526001600160a01b039092169184917f626eeb720160eab134f4574ba267dc071c8dae88a8157b73f2adc23062b4714d91015b60405180910390a350611c806001600255565b50565b611c8b61360f565b5f828152601960205260409020546001600160a01b03163314611cc05760405162461bcd60e51b8152600401610b1c906146fa565b5f8111611d0f5760405162461bcd60e51b815260206004820152601a60248201527f5761736941493a20616d6f756e74206d757374206265203e20300000000000006044820152606401610b1c565b5f82815260186020526040902054811115611d6c5760405162461bcd60e51b815260206004820181905260248201527f5761736941493a20696e73756666696369656e74206b65792062616c616e63656044820152606401610b1c565b5f8281526018602052604081208054839290611d89908490614514565b925050819055508060135f828254611da19190614514565b90915550611ddb90506001600160a01b037f00000000000000000000000000000000000000000000000000000000000000001633836136af565b604051818152339083907ff968df119e62b53960f5b7aaa847537e4b933ffd14eaba1e7ea5fb99bffb26329060200160405180910390a3611e1c6001600255565b5050565b611e286135e3565b6001600160a01b038216611e765760405162461bcd60e51b81526020600482015260156024820152742bb0b9b4a0a49d103d32b9379037b832b930ba37b960591b6044820152606401610b1c565b6001600160a01b0382165f81815260106020908152604091829020805460ff191685151590811790915591519182527f1a594081ae893ab78e67d9b9e843547318164322d32c65369d78a96172d9dc8f910160405180910390a25050565b611edc61370e565b611ee461360f565b611eec613637565b42601c5588611f325760405162461bcd60e51b815260206004820152601260248201527115d85cda50524e881e995c9bc81ad95e525960721b6044820152606401610b1c565b6001600160a01b038816611f7d5760405162461bcd60e51b81526020600482015260126024820152712bb0b9b4a0a49d103d32b9379037bbb732b960711b6044820152606401610b1c565b5f8711611f9c5760405162461bcd60e51b8152600401610b1c906145bb565b6040516371f70b0760e11b81526001600160a01b03898116600483015230602483015260448201899052606482018890526084820187905260a4820186905260ff851660c483015260e4820184905261010482018390527f0000000000000000000000000000000000000000000000000000000000000000169063e3ee160e90610124015f604051808303815f87803b158015612037575f80fd5b505af1158015612049573d5f803e3d5ffd5b5050505f8a8152601960205260409020546001600160a01b03161590506120a2575f898152601960205260409020546001600160a01b038981169116146120a25760405162461bcd60e51b8152600401610b1c906146fa565b5f89815260186020526040812080548992906120bf9084906145a8565b925050819055508660135f8282546120d791906145a8565b90915550505f898152601960205260409020546001600160a01b031661211e575f89815260196020526040902080546001600160a01b0319166001600160a01b038a161790555b876001600160a01b0316897f94f84c6d9a0719b20a94369319d60e23dc794630554889963820e8af96f9ebfe8960405161215a91815260200190565b60405180910390a361216c6001600255565b505050505050505050565b61217f61370e565b61218761360f565b61218f613637565b42601c555f818152601a602052604090205460ff16156121f15760405162461bcd60e51b815260206004820181905260248201527f5761736941493a207061796d656e7420616c7265616479207265636f726465646044820152606401610b1c565b5f818152601a6020526040808220805460ff1916600117905551600e9061221b90889088906144a3565b90815260405190819003602001902080549091506001600160a01b03166122545760405162461bcd60e51b8152600401610b1c906144b2565b5f83116122735760405162461bcd60e51b8152600401610b1c906145bb565b806001015483146122c65760405162461bcd60e51b815260206004820152601760248201527f5761736941493a20616d6f756e74206d69736d617463680000000000000000006044820152606401610b1c565b6040516370a0823160e01b815230600482015283907f00000000000000000000000000000000000000000000000000000000000000006001600160a01b0316906370a0823190602401602060405180830381865afa15801561232a573d5f803e3d5ffd5b505050506040513d601f19601f8201168201806040525081019061234e91906144e9565b101561239c5760405162461bcd60e51b815260206004820152601c60248201527f5761736941493a20696e73756666696369656e742062616c616e6365000000006044820152606401610b1c565b6006545f90612710906123ba90600160a01b900461ffff1686614527565b6123c4919061453e565b90505f6123d18286614514565b83546001600160a01b03165f908152600f60205260408120805492935083929091906123fe9084906145a8565b925050819055508060145f82825461241691906145a8565b9091555050811561245b5760065461245b906001600160a01b037f000000000000000000000000000000000000000000000000000000000000000081169116846136af565b8460115f82825461246c91906145a8565b92505081905550600160125f82825461248591906145a8565b90915550506040516001600160a01b038716906124a5908a908a906144a3565b6040805191829003822088835260208301859052908201859052907f3c645aff37fe615c3bd758db9a88291cd2adf5af6774cd2cb357843b9643c73a9060600160405180910390a35050506118016001600255565b5f606062014370601d544261250f9190614514565b101591509250929050565b6125226135e3565b6118d95f6137e9565b6125336135e3565b6305f5e10081101561257d5760405162461bcd60e51b81526020600482015260136024820152725761736941493a2063617020746f6f206c6f7760681b6044820152606401610b1c565b64174876e8008111156125c95760405162461bcd60e51b81526020600482015260146024820152730aec2e6d282927440c6c2e040e8dede40d0d2ced60631b6044820152606401610b1c565b601580549082905560408051828152602081018490527ff4801dba0698dfc988861fe5706c05506de1b60390d85380cbb8171fcf80abc2910160405180910390a15050565b604080516060810182525f80825260208201819052818301529051600e9061263990859085906144a3565b90815260408051918290036020908101832060608401835280546001600160a01b03168452600181015491840191909152600201546001600160401b03169082015290505b92915050565b60015433906001600160a01b031681146126bc5760405163118cdaa760e01b81526001600160a01b0382166004820152602401610b1c565b611c80816137e9565b6126cd61370e565b6126d5613637565b42601c55848061271d5760405162461bcd60e51b81526020600482015260136024820152720aec2e6d282927440cadae0e8f240c4c2e8c6d606b1b6044820152606401610b1c565b6101f48111156127695760405162461bcd60e51b81526020600482015260176024820152765761736941493a20626174636820746f6f206c6172676560481b6044820152606401610b1c565b8084146127885760405162461bcd60e51b8152600401610b1c9061455d565b8082146127a75760405162461bcd60e51b8152600401610b1c9061455d565b5f5b818110156129bd576101f48686838181106127c6576127c6614594565b90506020020160208101906127db919061436c565b61ffff16111561282d5760405162461bcd60e51b815260206004820152601b60248201527f5761736941493a20726174696e67206f7574206f662072616e676500000000006044820152606401610b1c565b5f600e89898481811061284257612842614594565b905060200281019061285491906145e8565b6040516128629291906144a3565b908152604051908190036020019020546001600160a01b0316036128985760405162461bcd60e51b8152600401610b1c906144b2565b60405180606001604052808787848181106128b5576128b5614594565b90506020020160208101906128ca919061436c565b61ffff1681526020018585848181106128e5576128e5614594565b90506020020160208101906128fa9190614729565b63ffffffff168152602001426001600160401b0316815250601e89898481811061292657612926614594565b905060200281019061293891906145e8565b6040516129469291906144a3565b90815260408051918290036020908101909220835181549385015194909201516001600160401b0316600160301b026dffffffffffffffff0000000000001963ffffffff909516620100000265ffffffffffff1990941661ffff9093169290921792909217929092169190911790556001016127a9565b50604051429082907ff7fe8004708091c04eebd8a4918343212c21ae7a3f2731cd0550e407c677beb7905f90a350505050505050565b6129fb6135e3565b6118d9613802565b5f6060805f805f6060612a1461383f565b612a1c613871565b604080515f80825260208201909252600f60f81b9b939a50919850469750309650945092509050565b612a4d61370e565b612a5561360f565b42601c556001600160a01b0381165f908152600f602052604090205480612a8e5760405162461bcd60e51b8152600401610b1c90614682565b6001600160a01b0382165f908152600f6020526040812081905560148054839290612aba908490614514565b90915550612af490506001600160a01b037f00000000000000000000000000000000000000000000000000000000000000001683836136af565b816001600160a01b03167f7084f5476618d8e60b11ef0d7d3f06914655adb8793e28ff7f018d4c76d505d582604051612b2f91815260200190565b60405180910390a250611c806001600255565b612b4a61360f565b6001600160a01b038116612b975760405162461bcd60e51b81526020600482015260146024820152735761736941493a207a65726f206164647265737360601b6044820152606401610b1c565b5f600e8484604051612baa9291906144a3565b90815260405190819003602001902080549091506001600160a01b0316612be35760405162461bcd60e51b8152600401610b1c906144b2565b80546001600160a01b03163314612c325760405162461bcd60e51b81526020600482015260136024820152722bb0b9b4a0a49d103737ba1031b932b0ba37b960691b6044820152606401610b1c565b80546001600160a01b031981166001600160a01b0384811691821784556040519216918290612c6490889088906144a3565b604051908190038120907f0304cfe9507b1c0f4aaa4eae9bd6b99277a4cf13096c53b82084bd90b98e2ea6905f90a45050612c9f6001600255565b505050565b612cac6135e3565b600c546001600160a01b0316612d045760405162461bcd60e51b815260206004820152601b60248201527f5761736941493a206e6f2070656e64696e6720747265617375727900000000006044820152606401610b1c565b600d54421015612d505760405162461bcd60e51b81526020600482015260176024820152765761736941493a2074696d656c6f636b2061637469766560481b6044820152606401610b1c565b60068054600c80546001600160a01b03198084166001600160a01b0383811691821790965591169091555f600d8190556040519390921692909183917f4ab5be82436d353e61ca18726e984e561f5c1cc7c6d38b29d2553c790434705a9190a350565b612dbb6135e3565b610bb88161ffff161115612e035760405162461bcd60e51b815260206004820152600f60248201526e5761736941493a206d61782033302560881b6044820152606401610b1c565b600a805461ffff191661ffff8316179055612e216202a300426145a8565b600b81905560405190815261ffff8216907fa3ad96e2128c8f5f137a9033585bc7306c2295a260eff4e1d05563981fcba288906020015b60405180910390a250565b612e6b6135e3565b60078190556040518181527fb120d26fad0e7bd128060711a484693f1283b8143bf94bde9df9b13217aa4836906020015b60405180910390a150565b5f805f601454601354612eba91906145a8565b6040516370a0823160e01b81523060048201529092507f00000000000000000000000000000000000000000000000000000000000000006001600160a01b0316906370a0823190602401602060405180830381865afa158015612f1f573d5f803e3d5ffd5b505050506040513d601f19601f82011682018060405250810190612f4391906144e9565b9050818110159250909192565b6015546016546017545f90612f6890620151806145a8565b9050909192565b612f77613637565b335f9081526009602052604090205460075415801590612f9957506008548110155b15612fd957600754612fd9906001600160a01b037f000000000000000000000000000000000000000000000000000000000000000016903390309061389e565b612fe48160016145a8565b335f908152600960205260409020558315801590613003575060508411155b6130455760405162461bcd60e51b8152602060048201526013602482015272092dcecc2d8d2c840e6d8eace40d8cadccee8d606b1b6044820152606401610b1c565b6103e8831015801561305b57506305f5e1008311155b61309c5760405162461bcd60e51b81526020600482015260126024820152715072696365206f7574206f662072616e676560701b6044820152606401610b1c565b5f6001600160a01b0316600e86866040516130b89291906144a3565b908152604051908190036020019020546001600160a01b0316146131135760405162461bcd60e51b81526020600482015260126024820152712bb0b9b4a0a49d1039b63ab3903a30b5b2b760711b6044820152606401610b1c565b60408051606081018252338152602081018590526001600160401b038416818301529051600e9061314790889088906144a3565b9081526040805160209281900383018120845181546001600160a01b0319166001600160a01b039091161781559284015160018401559201516002909101805467ffffffffffffffff19166001600160401b0390921691909117905533906131b290879087906144a3565b604080519182900382208683526001600160401b0386166020840152917fd9d9021ea43d3d3c9dade18b99429310b2d5850ce11ce11ce52c599a4ad73e889101611348565b6131ff61360f565b62278d00601c5461321091906145a8565b421161325e5760405162461bcd60e51b815260206004820152601d60248201527f5761736941493a206f70657261746f72207374696c6c206163746976650000006044820152606401610b1c565b5f818152601960205260409020546001600160a01b031633146132935760405162461bcd60e51b8152600401610b1c906146fa565b5f81815260186020526040902054806132be5760405162461bcd60e51b8152600401610b1c90614682565b5f828152601860205260408120819055601380548392906132e0908490614514565b9091555061331a90506001600160a01b037f00000000000000000000000000000000000000000000000000000000000000001633836136af565b604051818152339083907f626eeb720160eab134f4574ba267dc071c8dae88a8157b73f2adc23062b4714d90602001611c6d565b6133566135e3565b6001600160a01b0381166133a35760405162461bcd60e51b81526020600482015260146024820152735761736941493a207a65726f206164647265737360601b6044820152606401610b1c565b6006546001600160a01b03908116908216036133f95760405162461bcd60e51b81526020600482015260156024820152745761736941493a2073616d6520747265617375727960581b6044820152606401610b1c565b600c80546001600160a01b0319166001600160a01b0383161790556134216202a300426145a8565b600d8190556040519081526001600160a01b038216907fa53e20e249898f9563d8344f2c72ddc071184212cf4af3b092f46eaa5ec2616c90602001612e58565b6134696135e3565b600180546001600160a01b0383166001600160a01b031990911681179091556134995f546001600160a01b031690565b6001600160a01b03167f38d16b8cac22d99fc7c124b9cd0de2d3fa1faef420bfe791d8c362d765e2270060405160405180910390a350565b6134d96135e3565b5f600b54116135235760405162461bcd60e51b81526020600482015260166024820152755761736941493a206e6f2070656e64696e672066656560501b6044820152606401610b1c565b600b5442101561356f5760405162461bcd60e51b81526020600482015260176024820152765761736941493a2074696d656c6f636b2061637469766560481b6044820152606401610b1c565b60068054600a805461ffff808216600160a01b90810261ffff60a01b198616179586905561ffff199092169092555f600b5560408051938290048316808552919094049091166020830152917f84e4fe32bf74c4011a7e1fde79c63acdffaf92a0112cde153e7b0abee665bc6b9101612e9c565b5f546001600160a01b031633146118d95760405163118cdaa760e01b8152336004820152602401610b1c565b600280540361363157604051633ee5aeb560e01b815260040160405180910390fd5b60028055565b60035460ff16156118d95760405163d93c066560e01b815260040160405180910390fd5b5f61267e6136676138dd565b8360405161190160f01b8152600281019290925260228201526042902090565b5f805f806136958686613a06565b9250925092506136a58282613a4c565b5090949350505050565b6040516001600160a01b03838116602483015260448201839052612c9f91859182169063a9059cbb906064015b604051602081830303815290604052915060e01b6020820180516001600160e01b038381831617835250505050613b04565b335f9081526010602052604090205460ff168061373457505f546001600160a01b031633145b6118d95760405162461bcd60e51b81526020600482015260146024820152732bb0b9b4a0a49d103737ba1037b832b930ba37b960611b6044820152606401610b1c565b60175461378790620151806145a8565b42106118d9575f60165542601755565b61379f613b70565b6003805460ff191690557f5db9ee0a495bf2e6ff9c91a7834c1ba4fdd244a5e8aa4e537bd38aeae4b073aa335b6040516001600160a01b03909116815260200160405180910390a1565b600180546001600160a01b0319169055611c8081613b93565b61380a613637565b6003805460ff191660011790557f62e78cea01bee320cd4e420270b5ea74000d11b0c9f74754ebdbfc544b05a2586137cc3390565b606061386c7f00000000000000000000000000000000000000000000000000000000000000006004613be2565b905090565b606061386c7f00000000000000000000000000000000000000000000000000000000000000006005613be2565b6040516001600160a01b0384811660248301528381166044830152606482018390526138d79186918216906323b872dd906084016136dc565b50505050565b5f306001600160a01b037f00000000000000000000000000000000000000000000000000000000000000001614801561393557507f000000000000000000000000000000000000000000000000000000000000000046145b1561395f57507f000000000000000000000000000000000000000000000000000000000000000090565b61386c604080517f8b73c3c69bb8fe3d512ecc4cf759cc79239f7b179b0ffacaa9a75d522b39400f60208201527f0000000000000000000000000000000000000000000000000000000000000000918101919091527f000000000000000000000000000000000000000000000000000000000000000060608201524660808201523060a08201525f9060c00160405160208183030381529060405280519060200120905090565b5f805f8351604103613a3d576020840151604085015160608601515f1a613a2f88828585613c8b565b955095509550505050611945565b505081515f9150600290611945565b5f826003811115613a5f57613a5f61474c565b03613a68575050565b6001826003811115613a7c57613a7c61474c565b03613a9a5760405163f645eedf60e01b815260040160405180910390fd5b6002826003811115613aae57613aae61474c565b03613acf5760405163fce698f760e01b815260048101829052602401610b1c565b6003826003811115613ae357613ae361474c565b03611e1c576040516335e2f38360e21b815260048101829052602401610b1c565b5f8060205f8451602086015f885af180613b23576040513d5f823e3d81fd5b50505f513d91508115613b3a578060011415613b47565b6001600160a01b0384163b155b156138d757604051635274afe760e01b81526001600160a01b0385166004820152602401610b1c565b60035460ff166118d957604051638dfc202b60e01b815260040160405180910390fd5b5f80546001600160a01b038381166001600160a01b0319831681178455604051919092169283917f8be0079c531659141344cd1fd0a4f28419497f9722a3daafe3b4186f6b6457e09190a35050565b606060ff8314613bfc57613bf583613d53565b905061267e565b818054613c0890614760565b80601f0160208091040260200160405190810160405280929190818152602001828054613c3490614760565b8015613c7f5780601f10613c5657610100808354040283529160200191613c7f565b820191905f5260205f20905b815481529060010190602001808311613c6257829003601f168201915b5050505050905061267e565b5f80807f7fffffffffffffffffffffffffffffff5d576e7357a4501ddfe92f46681b20a0841115613cc457505f91506003905082613d49565b604080515f808252602082018084528a905260ff891692820192909252606081018790526080810186905260019060a0016020604051602081039080840390855afa158015613d15573d5f803e3d5ffd5b5050604051601f1901519150506001600160a01b038116613d4057505f925060019150829050613d49565b92505f91508190505b9450945094915050565b60605f613d5f83613d90565b6040805160208082528183019092529192505f91906020820181803683375050509182525060208101929092525090565b5f60ff8216601f81111561267e57604051632cd44ac360e21b815260040160405180910390fd5b5f8083601f840112613dc7575f80fd5b5081356001600160401b03811115613ddd575f80fd5b602083019150836020828501011115613df4575f80fd5b9250929050565b5f805f60408486031215613e0d575f80fd5b83356001600160401b03811115613e22575f80fd5b613e2e86828701613db7565b909790965060209590950135949350505050565b5f60208284031215613e52575f80fd5b5035919050565b80356001600160a01b0381168114613e6f575f80fd5b919050565b5f805f805f8060a08789031215613e89575f80fd5b613e9287613e59565b955060208701359450604087013593506060870135925060808701356001600160401b03811115613ec1575f80fd5b613ecd89828a01613db7565b979a9699509497509295939492505050565b5f60208284031215613eef575f80fd5b613ef882613e59565b9392505050565b80356001600160401b0381168114613e6f575f80fd5b5f805f805f60808688031215613f29575f80fd5b85356001600160401b03811115613f3e575f80fd5b613f4a88828901613db7565b90965094505060208601359250613f6360408701613e59565b9150613f7160608701613eff565b90509295509295909350565b5f8083601f840112613f8d575f80fd5b5081356001600160401b03811115613fa3575f80fd5b6020830191508360208260051b8501011115613df4575f80fd5b5f805f805f60608688031215613fd1575f80fd5b8535945060208601356001600160401b0380821115613fee575f80fd5b613ffa89838a01613f7d565b90965094506040880135915080821115614012575f80fd5b5061401f88828901613f7d565b969995985093965092949392505050565b5f8060208385031215614041575f80fd5b82356001600160401b03811115614056575f80fd5b61406285828601613db7565b90969095509350505050565b5f805f805f60808688031215614082575f80fd5b85356001600160401b03811115614097575f80fd5b6140a388828901613db7565b90965094506140b6905060208701613e59565b94979396509394604081013594506060013592915050565b5f80604083850312156140df575f80fd5b50508035926020909101359150565b5f80604083850312156140ff575f80fd5b61410883613e59565b91506020830135801515811461411c575f80fd5b809150509250929050565b5f805f805f805f805f6101208a8c031215614140575f80fd5b8935985061415060208b01613e59565b975060408a0135965060608a0135955060808a0135945060a08a0135935060c08a013560ff81168114614181575f80fd5b8093505060e08a013591506101008a013590509295985092959850929598565b5f81518084525f5b818110156141c5576020818501810151868301820152016141a9565b505f602082860101526020601f19601f83011685010191505092915050565b8215158152604060208201525f6141fe60408301846141a1565b949350505050565b5f805f805f806060878903121561421b575f80fd5b86356001600160401b0380821115614231575f80fd5b61423d8a838b01613f7d565b90985096506020890135915080821115614255575f80fd5b6142618a838b01613f7d565b90965094506040890135915080821115614279575f80fd5b50613ecd89828a01613f7d565b60ff60f81b881681525f602060e060208401526142a660e084018a6141a1565b83810360408501526142b8818a6141a1565b606085018990526001600160a01b038816608086015260a0850187905284810360c0860152855180825260208088019350909101905f5b8181101561430b578351835292840192918401916001016142ef565b50909c9b505050505050505050505050565b5f805f6040848603121561432f575f80fd5b83356001600160401b03811115614344575f80fd5b61435086828701613db7565b9094509250614363905060208501613e59565b90509250925092565b5f6020828403121561437c575f80fd5b813561ffff81168114613ef8575f80fd5b634e487b7160e01b5f52604160045260245ffd5b5f602082840312156143b1575f80fd5b81356001600160401b03808211156143c7575f80fd5b818401915084601f8301126143da575f80fd5b8135818111156143ec576143ec61438d565b604051601f8201601f19908116603f011681019083821181831017156144145761441461438d565b8160405282815287602084870101111561442c575f80fd5b826020860160208301375f928101602001929092525095945050505050565b5f805f806060858703121561445e575f80fd5b84356001600160401b03811115614473575f80fd5b61447f87828801613db7565b9095509350506020850135915061449860408601613eff565b905092959194509250565b818382375f9101908152919050565b60208082526017908201527f5761736941493a206167656e74206e6f7420666f756e64000000000000000000604082015260600190565b5f602082840312156144f9575f80fd5b5051919050565b634e487b7160e01b5f52601160045260245ffd5b8181038181111561267e5761267e614500565b808202811582820484141761267e5761267e614500565b5f8261455857634e487b7160e01b5f52601260045260245ffd5b500490565b60208082526017908201527f5761736941493a206c656e677468206d69736d61746368000000000000000000604082015260600190565b634e487b7160e01b5f52603260045260245ffd5b8082018082111561267e5761267e614500565b60208082526013908201527215d85cda50524e881e995c9bc8185b5bdd5b9d606a1b604082015260600190565b5f808335601e198436030181126145fd575f80fd5b8301803591506001600160401b03821115614616575f80fd5b602001915036819003821315613df4575f80fd5b81835281816020850137505f828201602090810191909152601f909101601f19169091010190565b608081525f61466560808301878961462a565b602083019590955250604081019290925260609091015292915050565b6020808252601b908201527f5761736941493a206e6f7468696e6720746f2077697468647261770000000000604082015260600190565b60a081525f6146cc60a08301888a61462a565b6001600160a01b03969096166020830152506040810193909352606083019190915260809091015292915050565b6020808252601590820152742bb0b9b4a0a49d103737ba1035b2bc9037bbb732b960591b604082015260600190565b5f60208284031215614739575f80fd5b813563ffffffff81168114613ef8575f80fd5b634e487b7160e01b5f52602160045260245ffd5b600181811c9082168061477457607f821691505b60208210810361479257634e487b7160e01b5f52602260045260245ffd5b5091905056fea264697066735822122001cf41c1c6be393c0b23544b31e67d9d8ae3b14f98c3b83fc2503db2f72206e964736f6c63430008180033","linkReferences":{}},"methodIdentifiers":{"EMERGENCY_TIMEOUT()":"7f264076","FEE_TIMELOCK()":"4354d521","TREASURY_TIMELOCK()":"214529ad","UPKEEP_INTERVAL()":"03526210","acceptOwnership()":"79ba5097","agents(string)":"cf6ee0cb","cancelFee()":"14025dcd","cancelTreasury()":"4d19e5ce","checkSolvency()":"c7926d04","checkUpkeep(bytes)":"6e04ff0d","claimEarnings(address,uint256,uint256,bytes32,bytes)":"0cbc649a","computePaymentId(string,address,uint256,bytes32)":"3db7a8f4","dailySettledAmount()":"c08151dc","dailySettlementCap()":"7589af21","dailySettlementReset()":"f4489dd9","depositForKey(bytes32,address,uint256,uint256,uint256,bytes32,uint8,bytes32,bytes32)":"5d3c95cd","earnings(address)":"543fd313","eip712Domain()":"84b0196e","emergencyWithdrawKey(bytes32)":"e4f06492","executeFee()":"f8c8f5f8","executeTreasury()":"bb2a46d9","freeRegistrationsPerUser()":"b15139fa","getAgent(string)":"794464e9","getDailySettlementStatus()":"d8cdc8dc","getKeyBalance(bytes32)":"bc2852be","getPendingEarnings(address)":"82f1b6b1","getReputation(string)":"3d1103f4","getStats()":"c59d4847","keyBalances(bytes32)":"dad1df98","keyOwners(bytes32)":"c359f082","lastOperatorActivity()":"d67e55d5","lastUpkeepTimestamp()":"624cffd4","operators(address)":"13e7c9d8","owner()":"8da5cb5b","pause()":"8456cb59","paused()":"5c975abb","pendingFeeBps()":"4c618e68","pendingFeeTimestamp()":"b7c16ce8","pendingOwner()":"e30c3978","pendingTreasury()":"2ed6b75d","pendingTreasuryTimestamp()":"fca4a528","performUpkeep(bytes)":"4585e33b","platformFeeBps()":"22dcd13e","proposeFee(uint16)":"bc651f6c","proposeTreasury(address)":"f110ed67","recordInvocation(string,address,uint256,bytes32)":"5dc75b8d","refundKeyToEarnings(bytes32)":"541f593c","registerAgent(string,uint256,address,uint64)":"146ecfe2","registrationFee()":"14c44e09","renounceOwnership()":"715018a6","reputations(string)":"c38a0115","selfRegisterAgent(string,uint256,uint64)":"e1f077ec","setDailySettlementCap(uint256)":"747d298f","setFreeRegistrationsPerUser(uint256)":"0c236909","setOperator(address,bool)":"558a7297","setRegistrationFee(uint256)":"c320c727","settleKeyBatch(bytes32,string[],uint256[])":"2fb40445","submitReputationBatch(string[],uint16[],uint32[])":"824a7507","totalEarnings()":"2df3eba4","totalInvocations()":"2bb3dcc8","totalKeyBalances()":"f4e984e7","totalVolume()":"5f81a57c","transferAgent(string,address)":"b7acd7a8","transferOwnership(address)":"f2fde38b","treasury()":"61d027b3","unpause()":"3f4ba83a","updateAgent(string,uint256)":"01b34854","usdc()":"3e413bee","usedPaymentIds(bytes32)":"52e1e8a7","usedVouchers(bytes32)":"bfa556e4","userRegistrationCount(address)":"126fbc6f","withdraw()":"3ccfd60b","withdrawFor(address)":"9eca672c","withdrawKey(bytes32,uint256)":"55665727"},"id":45}